:100000000C94A1000C94D2000C94D2000C94D20059
:100010000C94D2000C94D2000C94D2000C94D20018
:100020000C94D2000C94D2000C94D2000C94D20008
:100030000C94D2000C94D2000C94D2000C94D200F8
:100040000C94D2000C94D2000C94D2000C94D200E8
:100050000C94D2000C94D2000C94D2000C9449045D
:100060000C94D2000C941D050C94F3040C94D20053
:100070000C94D2000C94D2000C94D2000C94D200B8
:100080000C94D2000C94D2000C94D2000C94D200A8
:100090000C94BD040C9493040C94D2000C94D200E4
:1000A0000C94D2000C94D2000C94D2000C94D20088
:1000B0000C94D2000C94D2000C94D2000C94D20078
:1000C0000C94D2000C94D2000C94D2000C94D20068
:1000D0000C94D2000C94D2000C94D2000C94D20058
:1000E0000C94D2000C949A080C94F7010C94A7017C
:1000F0000C942C010C9484010C94A3090C946402BC
:100100000C9452010C9493010C9439080C947607CA
:100110000C9453050C947B080C94BC080C94B5010A
:100120000C9457010C94A3080C94B5080C948808FF
:100130000C9444020C94AC080C9491080C94AE09F5
:10014000530511241FBECFEFD1E2DEBFCDBF00E0CB
:100150000CBF14E0A0E0B2E0E0E5F8E100E00BBF86
:1001600002C007900D92A433B107D9F727E0A4E3AA
:10017000B4E001C01D92A63AB207E1F710E0C1EA6F
:10018000D0E000E006C021970109802FFE010E9407
:10019000150CC03AD10780E00807A9F70E94A60510
:1001A0000C94260C0C9400003FB7F89480916806DC
:1001B00090916906A0916A06B0916B0626B5A89B3E
:1001C00005C02F3F19F00196A11DB11D3FBFBA2FE9
:1001D000A92F982F8827BC01CD01620F711D811DA9
:1001E000911D42E0660F771F881F991F4A95D1F72E
:1001F00008958F929F92AF92BF92CF92DF92EF922B
:10020000FF926B017C010E94D4004B015C01C11480
:10021000D104E104F104B9F00E94D400681979090D
:100220008A099B09683E73408105910580F321E0AE
:10023000C21AD108E108F10888EE880E83E0981E02
:10024000A11CB11CE4CFFF90EF90DF90CF90BF9046
:10025000AF909F908F900895260F371F481F591F0A
:100260006217730784079507E1F06933710581050B
:10027000910549F06F3371058105910571F0E091A9
:100280006206E06803C0E0916206E260E093620605
:100290006F5F7F4F8F4F9F4FE3CFE0916206E46027
:1002A000F5CF0895BC0190E080E00C94F900AF9286
:1002B000BF92CF92DF92EF92FF920F931F93CF9353
:1002C000DF936C017B018B01040F151FEB015E01B5
:1002D000AE18BF08C017D10759F06991D601ED914A
:1002E000FC910190F081E02DC6011995892B79F7D9
:1002F000C501DF91CF911F910F91FF90EF90DF909B
:10030000CF90BF90AF900895FC01538D448D252F61
:1003100030E0842F90E0821B930B541710F0CF969F
:10032000089501970895FC01918D828D981761F0D1
:10033000A28DAE0FBF2FB11D5D968C91928D9F5FE8
:100340009F73928F90E008958FEF9FEF0895FC01C7
:10035000918D828D981731F0828DE80FF11D858D7A
:1003600090E008958FEF9FEF0895FC01918D228D0D
:10037000892F90E0805C9F4F821B91098F73992792
:1003800008958CE696E00E94B50121E0892B09F4DE
:1003900020E0822F089589E097E00E94B50121E0D6
:1003A000892B09F420E0822F0895FC01A48DA80F69
:1003B000B92FB11DA35ABF4F2C91848D90E00196A7
:1003C0008F739927848FA689B7892C93A089B189C7
:1003D0008C91837080648C93938D848D981306C068
:1003E0000288F389E02D80818F7D80830895EF92CC
:1003F000FF920F931F93CF93DF93EC0181E0888FDF
:100400009B8D8C8D98131AC0E889F989808185FFAE
:1004100015C09FB7F894EE89FF896083E889F98950
:1004200080818370806480839FBF81E090E0DF9152
:10043000CF911F910F91FF90EF900895F62E0B8DA5
:1004400010E00F5F1F4F0F731127E02E8C8D8E1160
:100450000CC00FB607FCFACFE889F989808185FFC7
:10046000F5CFCE010E94D501F1CFEB8DEC0FFD2F22
:10047000F11DE35AFF4FF0829FB7F8940B8FEA8982
:10048000FB8980818062CFCFCF93DF93EC01888D91
:100490008823B9F0AA89BB89E889F9898C9185FDFF
:1004A00003C0808186FD0DC00FB607FCF7CF8C918D
:1004B00085FFF2CF808185FFEDCFCE010E94D5016F
:1004C000E9CFDF91CF910895BC018CE696E00E94C0
:1004D00057018CE696E00C94440280E090E0892B72
:1004E00029F00E94CB0181110E94000080E090E081
:1004F000892B29F00E94C10181110E94000080E037
:1005000090E0892B49F080E090E0892B29F00E944F
:10051000000081110E94000080E090E0892B49F0EA
:1005200080E090E0892B29F00E94000081110C945A
:1005300000000895EF92FF920F931F93CF93DF93E4
:1005400000D000D01F921F92CDB7DEB78091380443
:1005500090913904A0913A04B0913B048130910507
:10056000A105B10579F150F00497A105B10508F096
:100570005EC06BEF7FEF8FEF9FEF17C0E091340409
:10058000F09135043097A9F38FEF89838AEA8A8343
:100590006B834C835D8345E050E060E070E0CE010A
:1005A0000196199560E070E0CB0128960FB6F8949B
:1005B000DEBF0FBECDBFDF91CF911F910F91FF9096
:1005C000EF900895E0903404F0903504E114F104C4
:1005D00081F280910002898386E08A831B826C838A
:1005E0005D834E83DE011196BE01695F7F4F3FEF51
:1005F0002FEFCD01A617B70759F42327322723275A
:100600003F83288748E050E060E070E0F701C9CF01
:100610004D912427422F50E08A010F5F1C4FF801B3
:10062000208123274F5F5D4FFA013081E3CF6AEFCE
:100630007FEF8FEF9FEFB9CFFC0101900020E9F72A
:100640003197AF01481B590BBC0189E097E00C942E
:1006500057018F929F92AF92BF920F931F93CF93A8
:10066000DF93CDB7DEB7A1970FB6F894DEBF0FBE0C
:10067000CDBF19A2423008F44AE08E010F5D1F4F32
:10068000842E912CB12CA12CA50194010E94F30B76
:10069000E62FB901CA01EA30F4F4E05DD801EE9327
:1006A0008D01232B242B252B79F790E080E01097E8
:1006B00019F0CD010E941C03A1960FB6F894DEBF7D
:1006C0000FBECDBFDF91CF911F910F91BF90AF9023
:1006D0009F908F900895E95CE1CF4F925F926F9267
:1006E0007F928F929F92AF92BF92CF92DF92EF92C2
:1006F000FF920F931F93CF936B017C01742EAC017B
:100700009B010E94EE0B882399F083E194E0CF9146
:100710001F910F91FF90EF90DF90CF90BF90AF901F
:100720009F908F907F906F905F904F900C941C03E0
:1007300046015701E894B7F82FEF3FEF4FE75FE727
:10074000C501B4010E94EE0B81110DC02FEF3FEFE8
:100750004FE75FE7C501B4010E94240A18161CF494
:1007600087E194E0D4CF2FEF3FEF4FE75FE4C7017D
:10077000B6010E947C0B18161CF48BE194E0C7CFE5
:100780002FEF3FEF4FE75FECC701B6010E94240A4D
:1007900087FDF3CF20E030E0A901C701B6010E9438
:1007A000240A10E000E087FF0AC06DE289E097E0CC
:1007B0000E94F7018C01F7FAF094F7F8F094C0E08A
:1007C00060E070E080E09FE37C1641F020E030E0E4
:1007D00040E251E40E94290ACF5FF6CFA7019601BB
:1007E0000E94B8092B013C010E949B0A4B015C014D
:1007F0004AE00E9429037C01E00EF11ECC23C1F1E6
:10080000C501B4010E94CA0A9B01AC01C301B20137
:100810000E94B7094B015C016EE289E097E00E94FB
:10082000F701E80EF91EC15018F120E030E040E277
:1008300051E4C501B4010E94810B2B013C010E94CF
:100840009B0A4B01B12CA12C4AE0C501B4010E94C6
:100850002903E80EF91EC501B4010E94CA0A9B01D2
:10086000AC01C301B2010E94B7094B015C01DBCFAF
:10087000C701CF911F910F91FF90EF90DF90CF9024
:10088000BF90AF909F908F907F906F905F904F90B0
:1008900008951F920F920FB60F9211242F933F933A
:1008A0008F939F93AF93BF93809164069091650659
:1008B000A0916606B09167063091630623E0230F8E
:1008C0002D3758F50196A11DB11D20936306809325
:1008D000640690936506A0936606B09367068091C0
:1008E000680690916906A0916A06B0916B06019620
:1008F000A11DB11D8093680690936906A0936A06B6
:10090000B0936B06BF91AF919F918F913F912F91C3
:100910000F900FBE0F901F90189526E8230F029698
:10092000A11DB11DD2CF1F920F920FB60F921124AD
:100930000BB60F922F933F934F935F936F937F93D9
:100940008F939F93AF93BF93EF93FF938CE696E0C3
:100950000E94D501FF91EF91BF91AF919F918F912F
:100960007F916F915F914F913F912F910F900BBEAF
:100970000F900FBE0F901F9018951F920F920FB6F9
:100980000F9211240BB60F922F938F939F93EF9397
:10099000FF93E0917C06F0917D068081E0918206D4
:1009A000F091830682FD1DC09081809185068F5F46
:1009B0008F7320918606821741F0E0918506F0E062
:1009C000E459F94F958F80938506FF91EF919F91A0
:1009D0008F912F910F900BBE0F900FBE0F901F9015
:1009E00018958081F2CF1F920F920FB60F921124AB
:1009F0000BB60F922F933F934F935F936F937F9319
:100A00008F939F93AF93BF93EF93FF9389E097E00A
:100A10000E94D501FF91EF91BF91AF919F918F916E
:100A20007F916F915F914F913F912F910F900BBEEE
:100A30000F900FBE0F901F9018951F920F920FB638
:100A40000F9211240BB60F922F938F939F93EF93D6
:100A5000FF93E0911907F0911A078081E0911F0739
:100A6000F091200782FD1DC09081809122078F5F49
:100A70008F7320912307821741F0E0912207F0E065
:100A8000E75FF84F958F80932207FF91EF919F9139
:100A90008F912F910F900BBE0F900FBE0F901F9054
:100AA00018958081F2CFECE6F6E01382128248EED0
:100AB00053E060E070E0448355836683778385E08C
:100AC00094E0918380832DEC30E0358724872CECF3
:100AD00030E03787268728EC30E0318B208B29ECFB
:100AE00030E0338B228B2AEC30E0358B248B2EECDC
:100AF00030E0378B268B118E128E138E148EE9E028
:100B0000F7E013821282448355836683778391834F
:100B1000808385EC90E09587848784EC90E09787CC
:100B2000868780EC90E0918B808B81EC90E0938BBA
:100B3000828B82EC90E0958B848B86EC90E0978B97
:100B4000868B118E128E138E148E0895CF93DF93A1
:100B5000CDB7DEB72C970FB6F894DEBF0FBECDBF72
:100B6000789484B5826084BD84B5816084BD85B588
:100B7000826085BD85B5816085BD80916E00816094
:100B800080936E001092810080918100826080933A
:100B9000810080918100816080938100809180003C
:100BA0008160809380008091B10084608093B10067
:100BB0008091B00081608093B0008091910082604C
:100BC0008093910080919100816080939100809149
:100BD00090008160809390008091A100826080935A
:100BE000A1008091A10081608093A1008091A0006C
:100BF00081608093A0008091210182608093210117
:100C00008091210181608093210180912001816088
:100C10008093200180917A00846080937A00809193
:100C20007A00826080937A0080917A00816080935C
:100C30007A0080917A00806880937A001092C100D7
:100C4000109238041092390410923A0410923B0426
:100C500080E58093000210923C0510923D051092B1
:100C60003E0510923F0584E692E090933504809310
:100C700034048CE291E0909341058093400582E535
:100C800091E0909337048093360448E855EB69E689
:100C900070E080E090E00E949A02672B682B692B3D
:100CA000E9F58091380490913904A0913A04B0910B
:100CB0003B0481309105A105B10509F036C1E091F1
:100CC0003604F091370484E190E0199546E050E055
:100CD00064E070E080E090E00E949A02672B682B4D
:100CE000692BE1F48091380490913904A0913A0481
:100CF000B0913B0481309105A105B10509F021C1F6
:100D0000E0913604F091370484E190E0199550E0C9
:100D100040E060E070E0CB010E949A0268EC70E075
:100D200080E090E00E94F90048E855EB69E670E049
:100D300080E090E00E949A02672B682B692BE9F50E
:100D40008091380490913904A0913A04B0913B0409
:100D500081309105A105B10509F0FFC0E09136048D
:100D6000F091370484E190E019954FEF5FE566E775
:100D700070E080E090E00E949A02672B682B692B5C
:100D8000E1F48091380490913904A0913A04B09133
:100D90003B0481309105A105B10509F0EAC0E0915D
:100DA0003604F091370484E190E0199550E040E07A
:100DB00060E070E0CB010E949A026CE271E080E09A
:100DC00090E00E94F90048E855EB69E670E080E0A9
:100DD00090E00E949A02672B682B692BE9F58091BD
:100DE000380490913904A0913A04B0913B048130C9
:100DF0009105A105B10509F0C8C0E0913604F09154
:100E0000370484E190E0199548E050E063E070E039
:100E100080E090E00E949A02672B682B692BE1F436
:100E20008091380490913904A0913A04B0913B0428
:100E300081309105A105B10509F0B3C0E0913604F8
:100E4000F091370484E190E0199550E040E060E0D3
:100E500070E0CB010E949A026CE271E080E090E0C9
:100E60000E94F9008CE696E00E94B501892B09F4F6
:100E70000CC28CE696E00E9493010091400510910F
:100E800041050115110571F340913C0550913D0557
:100E900060913E0570913F054A015B012FEF821A78
:100EA000920AA20AB20A80923C0590923D05A09255
:100EB0003E05B0923F05FA01E45CFB4F8083C09091
:100EC0003804D0903904E0903A04F0903B0431E0CB
:100ED000C316D104E104F10409F466C108F46DC03D
:100EE00094E0C916D104E104F10440F410923C05E9
:100EF00010923D0510923E0510923F0580913C05F1
:100F000090913D05A0913E05B0913F05811591401E
:100F1000A105B10509F0A6CF10923C0510923D0540
:100F200010923E0510923F059DCF892B8A2B8B2B6B
:100F300009F0CCCEE0913604F091370481E090E0E6
:100F4000C4CE892B8A2B8B2B09F0E1CEE09136049D
:100F5000F091370481E090E0D9CE892B8A2B8B2B3E
:100F600009F003CFE0913604F091370481E090E07E
:100F7000FBCE892B8A2B8B2B09F018CFE0913604FE
:100F8000F091370481E090E010CF892B8A2B8B2BD6
:100F900009F03ACFE0913604F091370481E090E017
:100FA00032CF892B8A2B8B2B09F04FCFE09136045F
:100FB000F091370481E090E047CF80913C04853583
:100FC00079F040933C0550933D0560933E05709346
:100FD0003F056DE374E08CE394E00E941D0C42CF6A
:100FE000ABE08A169104A104B10408F487CFECE3C6
:100FF000F4E080E09191890FB4E0E634FB07D1F78B
:10100000909146049813DDCF80913E0490913F0467
:101010009A83898380914004909141049C838B83BF
:1010200080914204909143049E838D838091440477
:101030009091450498878F83E0913D04E055E0311D
:1010400008F054CFF0E08827E75DF74F8F4F0C94FE
:10105000150C3908A309AE09BC087B088808760777
:1010600091089A08A308AC087607760776077607F2
:10107000B508412C512C320150E3852E912CA12C26
:10108000B12C19861A861B861C86A4E0CA2ED12C88
:10109000E12CF12CC401880F991FA601440F551FA4
:1010A000BE016F5F7F4F8E5B9A4F0E941D0CA701A0
:1010B0009601C501B401F801199589859A85AB851A
:1010C000BC85892B8A2B8B2B09F410CFF201EE0FF4
:1010D000FF1FEE5BFA4F8F81988591838083E091AB
:1010E0004005F091410521E030E040E050E0C301CF
:1010F000B2011995FBCE412C512C32014AE3842ECA
:10110000912CA12CB12C19861A861B861C8646C0F0
:10111000412C512C320131E4832E912CA12CB12C85
:10112000B0CF412C512C320129E4822E912CA12CDC
:10113000B12CA7CF412C512C32019DE4892E912C4A
:10114000A12CB12C9ECF412C512C320181E5882E4F
:10115000912CA12CB12C95CF412C512C3201B5E50D
:101160008B2E912CA12CB12C8CCF412C512C3201E7
:10117000812C912C540185CFEEE24E2E512C612C06
:10118000712CFDE38F2E912CA12CB12C81E090E0ED
:10119000A0E0B0E089879A87AB87BC8773E0C72E51
:1011A000D12CE12CF12C76CF93E089169104A10487
:1011B000B10408F4A3CE90913D04933009F001CF1F
:1011C00070903E04C72CD12CA5E0CA0ED11C0D2C6A
:1011D000000CEE08FF088C149D04AE04BF0408F454
:1011E00041CE6A017B01B1E0CB1AD108E108F108D8
:1011F000F601E45CFB4FE080FE2CE82E2401E2E0E7
:101200004E1A51088CE394E06C0199249A943FEFB4
:10121000F601EC53F440E415F505D0F0F32FE92D79
:10122000EE16FF0609F0CDCE272D2695E22EF12CE5
:10123000E2E4F5E050E040E002964E155F05C0F0B4
:1012400030E050E040E060E070E0CB01F80151CFC9
:10125000D6012D916D01E22FE327F0E09F012F5F72
:101260003C4FD9013C913925EF5FFD4F9080D0CFA5
:10127000DC0111966C91119712963C91762F632F99
:10128000619371934F5F5F4FD7CF80916206882340
:1012900009F456C00091C0051091C1058091620605
:1012A00081FF26C0E090B405F090B5058FE194E091
:1012B0000E941C03B701FF0C880B990B0E94CC0AFB
:1012C00020E030E040E058E30E94810B20E030E075
:1012D0004AEF54E40E94810B41E00E946D0387E2D3
:1012E00094E00E941C03809162068D7F80936206C9
:1012F0008091620682FF22C08AE294E00E941C0371
:10130000B801110F880B990B0E94CC0A20E030E045
:1013100040E058E30E94810B20E030E044E353E4D6
:101320000E94810B43E00E946D0387E294E00E94DB
:101330001C03809162068B7F809362061092620686
:101340000E946D028FCD90E4492E512C612C712C9E
:1013500024E3822E912CA12CB12C18CF412C512C9E
:10136000320187E3882E912CA12CB12CCCCE505881
:10137000BB27AA270E94CF090C94420B0E94340B72
:1013800038F00E943B0B20F039F49F3F19F426F40B
:101390000C94310B0EF4E095E7FB0C942B0BE92F2A
:1013A0000E94530B58F3BA17620773078407950717
:1013B00020F079F4A6F50C94750B0EF4E0950B2E45
:1013C000BA2FA02D0B01B90190010C01CA01A00197
:1013D0001124FF27591B99F0593F50F4503E68F1F2
:1013E0001A16F040A22F232F342F4427585FF3CF33
:1013F000469537952795A795F0405395C9F77EF404
:101400001F16BA0B620B730B840BBAF09150A1F04C
:10141000FF0FBB1F661F771F881FC2F70EC0BA0FD2
:10142000621F731F841F48F4879577956795B7955A
:10143000F7959E3F08F0B0CF9395880F08F0992755
:10144000EE0F9795879508950E94070B08F481E0A9
:1014500008950E943D0A0C94420B0E943B0B58F0E9
:101460000E94340B40F029F45F3F29F00C942B0BC1
:1014700051110C94760B0C94310B0E94530B68F3B2
:101480009923B1F3552391F3951B550BBB27AA273D
:1014900062177307840738F09F5F5F4F220F331F77
:1014A000441FAA1FA9F335D00E2E3AF0E0E832D03F
:1014B00091505040E695001CCAF72BD0FE2F29D042
:1014C000660F771F881FBB1F261737074807AB0714
:1014D000B0E809F0BB0B802DBF01FF2793585F4F89
:1014E0003AF09E3F510578F00C942B0B0C94760B40
:1014F0005F3FE4F3983ED4F3869577956795B7956B
:10150000F7959F5FC9F7880F911D9695879597F975
:101510000895E1E0660F771F881FBB1F62177307EE
:101520008407BA0720F0621B730B840BBA0BEE1F03
:1015300088F7E09508950E945B0B88F09F5798F01C
:10154000B92F9927B751B0F0E1F0660F771F881FC8
:10155000991F1AF0BA95C9F714C0B13091F00E94E2
:10156000750BB1E008950C94750B672F782F8827C1
:10157000B85F39F0B93FCCF3869577956795B39509
:10158000D9F73EF490958095709561957F4F8F4F78
:101590009F4F0895E89409C097FB3EF4909580957D
:1015A000709561957F4F8F4F9F4F9923A9F0F92F29
:1015B00096E9BB279395F695879577956795B795A7
:1015C000F111F8CFFAF4BB0F11F460FF1BC06F5F8D
:1015D0007F4F8F4F9F4F16C0882311F096E911C09F
:1015E000772321F09EE8872F762F05C0662371F0C0
:1015F00096E8862F70E060E02AF09A95660F771FD4
:10160000881FDAF7880F9695879597F90895990FAF
:101610000008550FAA0BE0E8FEEF16161706E807BC
:10162000F907C0F012161306E407F50798F0621BDD
:10163000730B840B950B39F40A2661F0232B242BB2
:10164000252B21F408950A2609F4A140A6958FEFD1
:10165000811D811D089597F99F6780E870E060E023
:1016600008959FEF80EC089500240A94161617063B
:1016700018060906089500240A9412161306140683
:1016800005060895092E0394000C11F4882352F0E6
:10169000BB0F40F4BF2B11F460FF04C06F5F7F4F9E
:1016A0008F4F9F4F089557FD9058440F551F59F085
:1016B0005F3F71F04795880F97FB991F61F09F3F3F
:1016C00079F087950895121613061406551FF2CF68
:1016D0004695F1DF08C0161617061806991FF1CFB8
:1016E00086957105610508940895E894BB276627DF
:1016F0007727CB0197F908950E94070B08F48FEF25
:1017000008950E94940B0C94420B0E94340B38F005
:101710000E943B0B20F0952311F00C942B0B0C94A2
:10172000310B11240C94760B0E94530B70F3959F90
:10173000C1F3950F50E0551F629FF001729FBB27C8
:10174000F00DB11D639FAA27F00DB11DAA1F649F64
:101750006627B00DA11D661F829F2227B00DA11D17
:10176000621F739FB00DA11D621F839FA00D611D9D
:10177000221F749F3327A00D611D231F849F600DBE
:10178000211D822F762F6A2F11249F5750409AF0E7
:10179000F1F088234AF0EE0FFF1FBB1F661F771F73
:1017A000881F91505040A9F79E3F510580F00C943E
:1017B0002B0B0C94760B5F3FE4F3983ED4F38695A5
:1017C00077956795B795F795E7959F5FC1F7FE2BDE
:1017D000880F911D9695879597F908950E94070B9C
:1017E000880B990B0895A1E21A2EAA1BBB1BFD01C1
:1017F0000DC0AA1FBB1FEE1FFF1FA217B307E407F0
:10180000F50720F0A21BB30BE40BF50B661F771F47
:10181000881F991F1A9469F7609570958095909527
:101820009B01AC01BD01CF010895EE0FFF1F881F82
:101830008BBF0790F691E02D1994FB01DC0102C0EB
:1018400001900D9241505040D8F70895F894FFCF81
:10185000FF00C0C101C30302C2C60607C705C5C455
:1018600004CC0C0DCD0FCFCE0E0ACACB0BC9090884
:10187000C8D81819D91BDBDA1A1EDEDF1FDD1D1CC4
:10188000DC14D4D515D71716D6D21213D311D1D054
:1018900010F03031F133F3F23236F6F737F53534F4
:1018A000F43CFCFD3DFF3F3EFEFA3A3BFB39F9F8C4
:1018B0003828E8E929EB2B2AEAEE2E2FEF2DEDEC64
:1018C0002CE42425E527E7E62622E2E323E1212094
:1018D000E0A06061A163A3A26266A6A767A5656494
:1018E000A46CACAD6DAF6F6EAEAA6A6BAB69A9A804
:1018F0006878B8B979BB7B7ABABE7E7FBF7DBDBC44
:101900007CB47475B577B7B67672B2B373B17170D3
:10191000B050909151935352929656579755959433
:10192000549C5C5D9D5F9F9E5E5A9A9B5B99595843
:1019300098884849894B8B8A4A4E8E8F4F8D4D4CE3
:101940008C44848545874746868242438341818013
:101950004000C1814001C0804101C0804100C1817F
:101960004001C0804100C1814000C1814001C08070
:101970004101C0804100C1814000C1814001C0805F
:101980004100C1814001C0804101C0804100C1814E
:101990004001C0804100C1814000C1814001C08040
:1019A0004100C1814001C0804101C0804100C1812E
:1019B0004000C1814001C0804101C0804100C1811F
:1019C0004001C0804100C1814000C1814001C08010
:1019D0004101C0804100C1814000C1814001C080FF
:1019E0004100C1814001C0804101C0804100C181EE
:1019F0004000C1814001C0804101C0804100C181DF
:101A00004001C0804100C1814000C1814001C080CF
:101A10004100C1814001C0804101C0804100C181BD
:101A20004001C0804100C1814000C1814001C080AF
:101A30004101C0804100C1814000C1814001C0809E
:101A40004100C1814001C0804101C0804100C1818D
:101A50004000000000F701570184014402B50193E2
:101A600001A7016E616E00696E66006F76660047C1
:101A700079726F5A3A20000D0A00416E676C655A00
:041A80003A20000008
:00000001FF
